:100000000C94F7010C941F020C941F020C94280707
:100010000C9403070C94DE060C941F020C941F0230
:100020000C941F020C941F020C941F020C943F08A6
:100030000C941F020C941F020C941F020C941F02BC
:100040000C9494060C941F020C94FE040C94D80497
:100050000C941F020C941F020C941F020C941F029C
:100060000C94F0090C941F020000000024002700EB
:100070002A0000000000250028002B0000000000DE
:1000800023002600290004040404040404040202DA
:10009000020202020303030303030000000800023C
:1000A0000100000304070000000000000000AE2073
:1000B00000C840817FA1A6A83FD300D580D922DA0D
:1000C00012DB208D14A4AF696E69742074686520FA
:1000D00068617264776172652E2E2E0A0053657214
:1000E000766F207465737465720A0066696E697351
:1000F000682073746F702C207761697420666F724A
:1001000020616374696F6E0A00746F6F206661729C
:100110002C20676F206261636B0A0073746F7070CC
:100120006564206174207468652072696768742052
:10013000706F736974696F6E0A00627265616B201B
:100140006D6F64650A00656E6420706F7369746911
:100150006F6E20726561636865640A006E6F20705F
:100160006F736974696F6E2C20676574206F6E659C
:100170000A007265616368656420636F756E742E32
:100180002E2E0A007374617274696E672E2E2E0A09
:1001900000646172743A000000000000000000007A
:1001A0002F000000000700070000147F147F1400D8
:1001B000242A7F2A1200626408132300364955223C
:1001C0005000000503000000001C22410000004117
:1001D000221C000014083E08140008083E0808000D
:1001E0000000A06000000808080808000060600027
:1001F00000002010080402003E5149453E00004224
:100200007F4000004261514946002141454B310089
:100210001814127F10002745454539003C4A4949CA
:100220003000017109050300364949493600064985
:1002300049291E0000363600000000563600000036
:100240000814224100001414141414000041221454
:100250000800020151090600324959513E007C1242
:1002600011127C007F49494936003E41414122003C
:100270007F4141221C007F49494941007F0909090A
:1002800001003E4149497A007F0808087F0000418B
:100290007F4100002040413F01007F0814224100BF
:1002A0007F40404040007F020C027F007F04081026
:1002B0007F003E4141413E007F09090906003E4161
:1002C00051215E007F0919294600464949493100FC
:1002D00001017F0101003F4040403F001F204020BE
:1002E0001F003F4038403F006314081463000708B4
:1002F00070080700615149454300007F41410000FB
:10030000552A552A55000041417F00000402010290
:10031000040040404040400000010204000020541E
:10032000545478007F484444380038444444200002
:10033000384444487F00385454541800087E09015A
:10034000020018A4A4A47C007F08040478000044E0
:100350007D4000004080847D00007F102844000024
:1003600000417F4000007C04180478007C080404ED
:100370007800384444443800FC242424180018240D
:100380002418FC007C08040408004854545420003D
:10039000043F444020003C4040207C001C20402082
:1003A0001C003C4030403C004428102844001CA065
:1003B000A0A07C004464544C440000087700000076
:1003C00000007F00000000770800000010081008FF
:1003D00000141414141414000102040810204080A6
:1003E0000102040810200102040810203C1311240B
:1003F0001FBECFEFD8E0DEBFCDBF23E0A2E8B1E063
:1004000001C01D92A235B207E1F711E0A0E0B1E012
:10041000E0E3FBE202C005900D92A238B107D9F7E4
:1004200011E0C7EFD1E004C02197FE010E94C6137E
:10043000C63FD107C9F70E94370D0C9496150C944E
:100440000000FC01918D828D981761F0828DDF0193
:10045000A80FB11D5D968C91928D9F5F9F73928FB7
:1004600090E008958FEF9FEF0895FC01918D828DAC
:10047000981731F0828DE80FF11D858D90E0089579
:100480008FEF9FEF0895FC01918D228D892F90E0D1
:10049000805C9F4F821B91098F739927089582E694
:1004A00092E00E94430221E0892B09F420E0822F90
:1004B0000895FC01848DDF01A80FB11DA35ABF4F21
:1004C0002C91848D90E001968F739927848FA68953
:1004D000B7892C93A089B1898C9180648C93938D7A
:1004E000848D981306C00288F389E02D80818F7D6A
:1004F00080830895EF92FF920F931F93CF93DF9322
:10050000EC0181E0888F9B8D8C8D981305C0E88964
:10051000F989808185FD24C0F62E0B8D10E00F5FD8
:100520001F4F0F731127E02E8C8DE8120CC00FB6F1
:1005300007FCFACFE889F989808185FFF5CFCE01E4
:100540000E945902F1CF8B8DFE01E80FF11DE35A95
:10055000FF4FF0820B8FEA89FB898081806207C0A0
:10056000EE89FF896083E889F989808180648083CE
:1005700081E090E0DF91CF911F910F91FF90EF907C
:100580000895CF93DF93EC01888D8823C9F0EA8921
:10059000FB89808185FD05C0A889B9898C9186FD7C
:1005A0000FC00FB607FCF5CF808185FFF2CFA88979
:1005B000B9898C9185FFEDCFCE010E945902E7CF1A
:1005C000DF91CF91089580E090E0892B29F00E947F
:1005D0004F0281110C9400000895833081F028F4BB
:1005E000813099F08230A1F008958730A9F08830E9
:1005F000B9F08430D1F4809180008F7D03C0809168
:1006000080008F7780938000089584B58F7702C033
:1006100084B58F7D84BD08958091B0008F7703C02D
:100620008091B0008F7D8093B00008953FB7F8941B
:100630008091180290911902A0911A02B0911B02A8
:1006400026B5A89B05C02F3F19F00196A11DB11D2D
:100650003FBFBA2FA92F982F8827820F911DA11D68
:10066000B11DBC01CD0142E0660F771F881F991FA5
:100670004A95D1F7089508950F931F93CF93DF9371
:100680001F92CDB7DEB7182F062FE0912502F0910B
:10069000260249830995E0915B02F0915C0281E2B8
:1006A0000995E0915B02F0915C02812F0995E09140
:1006B0005B02F0915C024981442321F04150842F78
:1006C000810F03C080915F0281500995E0915B0228
:1006D000F0915C0282E20995E0915B02F0915C028C
:1006E000802F099580912702869586958695E091C1
:1006F0005B02F0915C0281500995E0915902F09102
:100700005A020F90DF91CF911F910F910994909110
:10071000210280910E02913208F046C02091200201
:100720002111FCCF22E02093200221E020931F0220
:100730002FEF2093EC011092EB019093EA01AEEEC3
:10074000B1E04AEC51E0FA012E2F241B291718F4CE
:100750002D912193F9CF1092C9019091C901880F71
:10076000892B8093C90180911E02813061F410921F
:100770001E028091C9018093BB008091BC0083FD63
:10078000F8CF85EC01C085EE8093BC0080912002FB
:100790008230E1F38091EC018F3F31F08091EC01E8
:1007A000803211F08091EC0110922202109221020D
:1007B0001092ED0108958091000191E09093ED0178
:1007C00080930E02109222021092210210920F02C8
:1007D0000895E0911C02F0911D020995E0915B02E1
:1007E000F0915C0280E40994E0911C02F0911D02FA
:1007F0000995E0915B02F0915C0280E0099485ED3F
:100800008093BC008091BC0084FDFCCF109220023C
:1008100008954091A401262F30E0240F311D21328C
:100820003105DCF4209120022430C9F4FC0180E081
:1008300090E0861758F43091A4012191DC01AE5765
:10084000BE4FA30FB11D2C930196F3CF8091A4014D
:10085000680F6093A40180E0089581E0089582E02C
:100860000895089581E090E03091240220912302C0
:10087000321710F480E090E09195819591090895E8
:100880008091240290912302891730F48F5F809326
:10089000240280E090E008958FEF9FEF089580910B
:1008A000230290E020912402821B91090895CF92A7
:1008B000DF92EF92FF920F931F93CF93DF937C0110
:1008C000262F972F8A018091ED01882391F0C62F62
:1008D000D72F6E01C40ED51ECC15DD0571F06991C0
:1008E000D701ED91FC910190F081E02DC7010995B0
:1008F000F3CF642F822F0E940904C801DF91CF91AA
:100900001F910F91FF90EF90DF90CF900895CF93BC
:10091000DF931F92CDB7DEB769832091ED012223CB
:10092000D1F020912102203240F021E030E0FC01A2
:100930003383228380E090E015C080912202E82F6B
:10094000F0E0E251FE4F998190838F5F8093220205
:100950008093210205C061E0CE0101960E94090446
:1009600081E090E00F90DF91CF910895CF93C82F51
:1009700080910F02803170F00E9487030E94DB0398
:1009800060E48FEF92E00E94870490910F029F5FD6
:1009900090930F026C2F8FEF92E00E94870480915A
:1009A0000F028F5F80930F02CF9108950E94F91478
:1009B0001F920F920FB60F9211242F933F934F93D4
:1009C0005F936F937F938F939F93AF93BF93EF93B7
:1009D000FF9382E692E00E945902FF91EF91BF914E
:1009E000AF919F918F917F916F915F914F913F91C7
:1009F0002F910F900FBE0F901F9018951F920F927E
:100A00000FB60F9211242F938F939F93EF93FF9321
:100A1000E0917202F09173028081E0917802F0918E
:100A2000790282FD12C0908180917B028F5F8F736B
:100A300020917C02821751F0E0917B02F0E0EE59A8
:100A4000FD4F958F80937B0201C08081FF91EF91D4
:100A50009F918F912F910F900FBE0F901F9018951F
:100A6000CF93DF93282F30E0F901E656FF4F8491B2
:100A7000F901E852FC4FD491F901EA57FF4FC491B4
:100A8000CC2391F081110E94ED02EC2FF0E0EE0FEB
:100A9000FF1FE458FF4FA591B491EC91ED2381E045
:100AA00090E021F480E002C080E090E0DF91CF91FF
:100AB00008951F93CF93DF93282F30E0F901E65676
:100AC000FF4F8491F901E852FC4FD491F901EA57A4
:100AD000FF4FC491CC23C9F0162F81110E94ED0263
:100AE000EC2FF0E0EE0FFF1FEE58FF4FA591B491F1
:100AF0008FB7F894111105C09C91ED2FE095E92373
:100B000002C0EC91ED2BEC938FBFDF91CF911F9141
:100B10000895CF93DF9390E0FC01E852FC4F2491BD
:100B2000FC01EA57FF4F8491882361F190E0880F20
:100B3000991FFC01E859FF4FC591D491FC01EE5873
:100B4000FF4FA591B491611109C09FB7F8948881B6
:100B5000209582238883EC912E230BC0623061F4B0
:100B60009FB7F8943881822F809583238883EC91F6
:100B70002E2B2C939FBF06C08FB7F894E8812E2BA5
:100B800028838FBFDF91CF9108951F93CF93DF9379
:100B9000182FEB0161E00E948905209711F460E0B5
:100BA00004C0CF3FD10539F461E0812FDF91CF91AF
:100BB0001F910C945905E12FF0E0E656FF4FE491A8
:100BC000E330F9F048F4E130B9F0E230A1F584B552
:100BD000806284BDC8BD34C0E730E9F0E83019F167
:100BE000E43049F580918000806280938000D0934A
:100BF0008B00C0938A0024C084B5806884BDC7BDC3
:100C00001FC080918000806880938000D09389000D
:100C1000C093880015C08091B00080688093B000B8
:100C2000C093B3000DC08091B00080628093B0008B
:100C3000C093B40005C0C038D1050CF0B5CFAFCF1C
:100C4000DF91CF911F9108958F929F92AF92BF92A3
:100C5000CF92DF92EF92FF926B017C010E9416030C
:100C60004B015C01C114D104E104F104F1F00E94D4
:100C70001603DC01CB0188199909AA09BB09883E32
:100C80009340A105B10570F321E0C21AD108E10833
:100C9000F10888EE880E83E0981EA11CB11CC114D7
:100CA000D104E104F10419F7DDCFFF90EF90DF905C
:100CB000CF90BF90AF909F908F9008952FB7F894EA
:100CC00060911402709115028091160290911702A2
:100CD0002FBF08951F93CF93DF93182F89E0189F9C
:100CE000E0011124C25CDD4FE881F98180819C81A3
:100CF00098239A830E945E066D837E838F839887F4
:100D0000E0911102F0911202309751F09A816B81BB
:100D100069274A814623812FDF91CF911F91099442
:100D2000DF91CF911F9108951F920F920FB60F92EE
:100D300011242F933F938F939F93AF93BF938091F1
:100D4000140290911502A0911602B09117023091F1
:100D5000130223E0230F2D3720F40196A11DB11DAE
:100D600005C026E8230F0296A11DB11D2093130292
:100D70008093140290931502A0931602B093170269
:100D80008091180290911902A0911A02B0911B0251
:100D90000196A11DB11D8093180290931902A09392
:100DA0001A02B0931B02BF91AF919F918F913F9117
:100DB0002F910F900FBE0F901F9018951F920F92BA
:100DC0000FB60F9211242F933F934F935F936F931E
:100DD0007F938F939F93AF93BF93EF93FF9382E0A3
:100DE0000E946A06FF91EF91BF91AF919F918F9101
:100DF0007F916F915F914F913F912F910F900FBE17
:100E00000F901F9018951F920F920FB60F921124FA
:100E10002F933F934F935F936F937F938F939F9302
:100E2000AF93BF93EF93FF9381E00E946A06FF9117
:100E3000EF91BF91AF919F918F917F916F915F9152
:100E40004F913F912F910F900FBE0F901F901895CB
:100E50001F920F920FB60F9211242F933F934F932F
:100E60005F936F937F938F939F93AF93BF93EF9312
:100E7000FF9380E00E946A06FF91EF91BF91AF91CE
:100E80009F918F917F916F915F914F913F912F91A2
:100E90000F900FBE0F901F90189590E0FC01E85244
:100EA000FC4F2491FC01EA57FF4FE491F0E0EE0F74
:100EB000FF1FEE58FF4FA591B4918C91E22FE09562
:100EC000E823EC93089590E0FC01E852FC4F249154
:100ED000FC01EA57FF4FE491F0E0EE0FFF1FEE58E0
:100EE000FF4FA591B491EC91E22BEC930895CF9232
:100EF000DF92EF92FF920F931F93CF93DF931F9296
:100F0000CDB7DEB7482FC82ED12CC60188529C4FD2
:100F10007C01FC01849186010A571F4FF8019491CE
:100F2000E92FF0E0EE0FFF1FE859FF4FA591B491B4
:100F30009C91809589238C93842F49830E94630719
:100F40004981483028F081E04E3018F480E001C03B
:100F500082E0F8012491222309F473C0082F10E0E5
:100F600030E0220F331F24583F4FF90165917491EF
:100F700099E0909FD001919FB00D1124A25CBD4FCC
:100F800011967C936E93F701E49014969C911497BC
:100F9000E92A1496EC92463118F0E0E0F0E002C045
:100FA000E8E6F0E02081483050F031E04E3008F4BF
:100FB00030E091E001C0990F3A95EAF701C094E062
:100FC000922B9083483038F04E3040F0463148F450
:100FD000ECE6F0E008C0EDE6F0E005C0EBE6F0E09E
:100FE00002C0E0E0F0E02081483030F491E001C040
:100FF000990F4A95EAF70EC04E3020F498E0C91ACE
:10100000D10803C09EE0C91AD10891E001C0990F30
:10101000CA94EAF7922B90830E946A060E945E06A9
:10102000DC01CB010597A109B10929E0209FF0015E
:10103000219FF00D1124E25CFD4F85839683A783E9
:10104000B0870F90DF91CF911F910F91FF90EF909C
:10105000DF90CF90089590E0FC01E852FC4F24917E
:10106000FC01EA57FF4FE491F0E0EE0FFF1FE85953
:10107000FF4FA591B491EC91E22BEC9308951F9250
:101080000F920FB60F9211242F933F934F935F93BC
:101090006F937F938F939F93AF93BF93EF93FF9340
:1010A0008091100287FF05C0109285001092840085
:1010B0001BC020911002022E000C330B80912F03D5
:1010C00090E02817390784F480911002082E000C54
:1010D000990BFC01EE0FFF1F8E0F9F1FFC01E55FB8
:1010E000FC4F808186FD15C0809110028F5F809338
:1010F000100220911002022E000C330B80912F035E
:1011000090E028173907C4F4809110028C3064F104
:1011100013C080911002082E000C990BFC01EE0FF9
:10112000FF1F8E0F9F1FFC01E55FFC4F808160E079
:101130008F730E945905D8CF8091840090918500CB
:10114000049680349C4918F480E49CE905C08091A1
:101150008400909185000496909389008093880084
:101160008FEF809310023BC0209184003091850066
:1011700080911002082E000C990BFC01EE0FFF1F4E
:101180008E0F9F1FFC01E55FFC4F81819281820FD2
:10119000931F909389008093880080911002082EFD
:1011A000000C990BFC01EE0FFF1F8E0F9F1FFC011F
:1011B000E55FFC4F808186FF12C080911002082EEF
:1011C000000C990BFC01EE0FFF1F8E0F9F1FFC01FF
:1011D000E55FFC4F808161E08F730E945905FF91AC
:1011E000EF91BF91AF919F918F917F916F915F919F
:1011F0004F913F912F910F900FBE0F901F90189518
:101200002F923F924F925F926F927F928F929F9216
:10121000AF92BF92CF92DF92EF92FF920F931F9304
:10122000CF93DF9300D01F92CDB7DEB7182F062FD4
:101230007A01690140915F02481BE0916002F091E0
:1012400061020995E0915D02F0915E020995912F8E
:10125000512C312C612C7724739420915F0230E063
:101260002B503109492F50E04217530734F4F7014E
:10127000E60DF11D8081811130C00F5F202F30E01D
:101280008091270290E043E0959587954A95E1F794
:10129000E0915902F0915A02281739070CF088C0E2
:1012A000552039F0D701A60DB11D8C91811102C0D6
:1012B0007FC0632C5724099540915F02411BE09148
:1012C0006002F0916102602F812F0995E0915D022B
:1012D000F0915E020995912F362CF701E60DF11D74
:1012E0002081205286E0289FA0011124812C912C7E
:1012F000412C5A018FEFA81AB80AC114D10439F44D
:10130000F401E40FF51FE956FE4FE49118C081E0A7
:10131000C816D10449F4F401E40FF51FE956FE4F55
:101320008491E82FE4290AC0F501E80DF91DE9567A
:10133000FE4F8491E82FE07FE4298F70482E5520DE
:1013400011F0E295EF70E0FD02C080E001C083E0A3
:10135000E1FD02C020E001C02CE0222E282AE2FD9F
:1013600002C080E001C080E3282AE3FD02C080E0E3
:1013700001C080EC282AE0915B02F0915C02822D92
:101380004A835B8399830995E0915B02F0915C024B
:10139000822D09958FEF881A980A4A815B8199817D
:1013A00086E08816910409F0A8CF945F639455CF26
:1013B0000995862D0F900F900F90DF91CF911F917F
:1013C0000F91FF90EF90DF90CF90BF90AF909F90E4
:1013D0008F907F906F905F904F903F902F900895E7
:1013E0001F920F920FB60F9211242F933F934F939A
:1013F0005F936F937F938F939F93AF93BF93EF937D
:10140000FF938091B900887F803609F49CC068F50D
:10141000883209F45BC090F4803109F454C038F488
:10142000882309F4F6C0883009F44DC0F6C088312D
:1014300009F44CC0803209F45DC0EFC0803409F477
:1014400068C048F4803309F455C0883309F0E5C01A
:101450008093EC01D8C0803509F44FC0883509F479
:101460005DC0883409F0D9C0D6C0883909F4C7C036
:10147000A8F4883709F467C038F4883609F463C0E3
:10148000803709F460C0C9C0883809F4B8C0803911
:1014900009F45FC0803809F0C0C05BC0803B09F42C
:1014A00086C038F4803A09F466C0883A09F47FC0EF
:1014B000B4C0803C09F4A7C0883C09F4A4C0883BB0
:1014C00009F48AC0AAC08091C90110C09091EB01B3
:1014D0008091EA01981770F5E091EB0181E08E0FA1
:1014E0008093EB01F0E0E653FE4F80818093BB00D8
:1014F00085EC86C08093EC018EC0E091EB0181E029
:101500008E0F8093EB018091BB00F0E0E653FE4F1D
:1015100080839091EB018091EA016EC0E091EB0134
:1015200081E08E0F8093EB018091BB00F0E0E653E9
:10153000FE4F808380911F0281116DC081E08093F6
:101540001E0284EA61C083E0809320021092C801E9
:10155000CFCF8091C801803208F051C0E091C8011E
:1015600081E08E0F8093C8018091BB00F0E0E855C8
:10157000FE4F8083BDCF85EC8093BC00109220028B
:101580008091C801803230F4E091C801F0E0E85564
:10159000FE4F10826091C80170E0E091A601F091C9
:1015A000A70188EA91E009951092C80136C084E04D
:1015B000809320021092A5011092A401E091A20153
:1015C000F091A30109958091A401811105C081E0EA
:1015D0008093A40110928201E091A50181E08E0F19
:1015E0008093A501F0E0EE57FE4F80818093BB0011
:1015F0009091A5018091A401981708F479CF85E80E
:101600008093BC000AC085EC8093BC00109220023D
:1016100004C01092EC010E94FF03FF91EF91BF9173
:10162000AF919F918F917F916F915F914F913F917A
:101630002F910F900FBE0F901F901895CF92DF92B1
:10164000EF92FF920F931F93CF93DF936C017A0178
:101650008B01C0E0D0E0CE15DF0589F0D8016D9197
:101660008D01D601ED91FC910190F081E02DC60134
:101670000995892B11F47E0102C02196ECCFC70198
:10168000DF91CF911F910F91FF90EF90DF90CF905E
:101690000895AC01909130039C3090F58091310316
:1016A00028E830E0281B310987FD3395220F331FCE
:1016B000220F331F4217530784F08091320328E52D
:1016C00032E0281B310987FD3395220F331F220F8B
:1016D000331F421753070CF49A0122503109220F8D
:1016E000331F4FB7F894892F90E0FC01EE0FFF1FD6
:1016F0008E0F9F1FFC01E55FFC4F328321834FBF9C
:101700000895CF92DF92EF92FF92803222E092070B
:101710000CF03FC097FD06C0853B91052CF084EB93
:1017200090E002C080E090E02091310348E850E072
:101730006A01C21AD10827FDD394CC0CDD1CCC0C55
:10174000DD1C0D2C000CEE08FF084091320328E54B
:1017500032E0241B310947FD3395220F331F220F3E
:10176000331FA901330F660B770B9A01AB012C19BC
:101770003D094E095F09DC010E945D1524EB30E054
:1017800040E050E00E943315C20ED31EE41EF51E49
:10179000C601FF90EF90DF90CF900C94490B0F9310
:1017A0001F93CF93DF938C01C0E0D0E0F801EC0FE2
:1017B000FD1F6491662371F0E0916202F091630273
:1017C0000190F081E02D82E692E00995892B11F0DD
:1017D0002196ECCFCE01DF91CF911F910F9108950B
:1017E0008091010120E4829FC001112483608093D5
:1017F0007C0080917A00806480937A0080917A00E6
:1018000086FDFCCF809178002091790090E0922BAA
:101810000895CF92DF92EF92FF921F93CF93DF93C1
:101820007A0140915F02481BE0916002F0916102F1
:101830000995E0915D02F0915E02099510E0F701D3
:10184000E10FF11DC081CC23D9F0C05286E0C89FC2
:10185000E0011124C12CD12CF601EC0FFD1FE9563B
:10186000FE4F8491E0915B02F0915C0209958FEF4D
:10187000C81AD80A86E0C816D10471F71F5FDFCFF7
:10188000E0915902F0915A020995812FDF91CF9191
:101890001F91FF90EF90DF90CF90089580913C03CF
:1018A000882321F090913D03981710F18091340323
:1018B0000E946307809133030E94630764E670E02F
:1018C00080E090E00E94240680E58093390360E583
:1018D00070E0809136030E94C505809134030E9418
:1018E0006307809133030E944D0783E080933A039E
:1018F0000895E0916202F09163020190F081E02D81
:10190000682F82E692E00994009769F0FC0101904B
:101910000020E9F73197AF01481B590BBC0182E663
:1019200092E00C941E0B80E090E008958F929F92BD
:10193000AF92BF920F931F93CF93DF93CDB7DEB7D4
:10194000A1970FB6F894DEBF0FBECDBF19A24230EB
:1019500008F44AE08E010F5D1F4F842E912CA12CBC
:10196000B12CA50194010E946515E62FB901CA01A9
:1019700001501109EA3014F4E05D01C0E95CD801BE
:10198000EC93232B242B252B61F7C8010E94840C98
:10199000A1960FB6F894DEBF0FBECDBFDF91CF91F9
:1019A0001F910F91BF90AF909F908F900895CF920D
:1019B000DF92EF92FF921F93CF93DF93883028F04E
:1019C000A1E08E3018F4A0E001C0A2E0E82FF0E022
:1019D000E852FC4FC491EA2EF12C89E0A89FD00177
:1019E0001124A25CBD4F12968C918C2311E009F456
:1019F00010E089E08E9DF0018F9DF00D1124E25CD6
:101A0000FD4F83818C23D1E009F4D0E01D1731F123
:101A10000E945E0629E02E9DD0012F9DB00D11245D
:101A2000A25CBD4F1596CD90DD90ED90FC9018977F
:101A3000AB01BC014C195D096E097F0945305105A8
:101A40006105710558F01396EC911397EC271396E6
:101A5000EC93111102C0D2E001C0D3E08D2FDF91D1
:101A6000CF911F91FF90EF90DF90CF900895CF938B
:101A7000DF93CDB7DEB72A970FB6F894DEBF0FBE5F
:101A8000CDBF789484B5826084BD84B5816084BD07
:101A900085B5826085BD85B5816085BD80916E000C
:101AA000816080936E00109281008091810082603D
:101AB000809381008091810081608093810080917A
:101AC00080008160809380008091B1008460809369
:101AD000B1008091B00081608093B00080917A0065
:101AE000846080937A0080917A00826080937A008B
:101AF00080917A00816080937A0080917A0080687A
:101B000080937A001092C100E0917202F09173020A
:101B100082E08083E0916E02F0916F021082E0918A
:101B20007002F091710280E1808310927A02E0915C
:101B30007602F091770286E08083E0917402F09162
:101B40007502808180618083E0917402F09175025A
:101B5000808188608083E0917402F09175028081B9
:101B600080688083E0917402F091750280818F7D9E
:101B700080838DED90E00E94CF0B10922402109292
:101B8000230210922202109221021092200281E080
:101B900080931F0210921E0261E082E10E945905AB
:101BA00061E083E10E9459058091B9008E7F8093A6
:101BB000B9008091B9008D7F8093B90088E480934B
:101BC000B80085E48093BC008CE08093B8008CE37F
:101BD000809300018BED93E090931D0280931C0293
:101BE00087E893E090935A028093590286EB94E041
:101BF00090935C0280935B0284EF93E090932602C3
:101C00008093250289EE93E090935E0280935D02BB
:101C100010922A0280E48093270280E880935F027A
:101C20008CE393E090936102809360028BE393E0F6
:101C300090932C0280932B0210922902109228027A
:101C40000EEA10E029E1F22EF00EF8018491E09105
:101C50002502F09126028E830995E0915B02F091B6
:101C60005C028E810995E0915902F0915A02099522
:101C70000F5F1F4FF012E9CFE0916002F091610217
:101C800040E060E080E00995E0915D02F0915E0245
:101C9000099510912702169516951695112399F01E
:101CA00000915F02002341F0E0915B02F0915C0241
:101CB00080E009950150F6CFE0912B02F0912C02C3
:101CC00009951150EBCFE0915902F0915A02099514
:101CD00020E030E04FE251E061E080E00E94000946
:101CE00021E030E04AE351E064E089E10E9400092C
:101CF00041E451E067E080E00E94090C85E00E9429
:101D000077078FE090E00E94CC138C018FE0D80120
:101D10008C938EE011968C93119780E112968C93A0
:101D2000129713961C92139715961C921E92149755
:101D300017961C921E92169784E018968C9318970B
:101D40001A961C921E9219971C961C921E921B9713
:101D500081E01D968C931D971E968C9362E08FE018
:101D60000E94890562E0F80181810E94890562E094
:101D7000D80112968C910E948905F80180810E94F9
:101D80003005D80113962C91139730E082179307F2
:101D900031F483E090E017969C938E931697F801A8
:101DA00081810E943005D80113962C91139730E061
:101DB0008217930749F416968D919C911797B1E07D
:101DC0008B27F8019783868310933902009338029A
:101DD00083E0809301010E94F00B0E945E066093F5
:101DE0003E0370933F03809340039093410388EE3A
:101DF00093E0A0E0B0E08093420390934303A0936C
:101E00004403B09345031CE0109333038DE08093AB
:101E1000340389E0809335038BE08093360386E0BA
:101E20008093370387E08093380387EC90E00E942B
:101E3000CF0B809137030E947707809138030E946F
:101E40007707809135030E942B08809135030E940B
:101E50004D07809134030E942B08809134030E9427
:101E60004D07809133030E942B08809133030E9419
:101E70004D07809136030E942B081092390360E0D1
:101E800070E0809136030E94C505809135030E9461
:101E90006307809130038C3008F053C061E08AE022
:101EA0000E94890580913003E82FF0E09F01220F06
:101EB000331FE20FF31FE55FFC4F9081907C9A6027
:101EC00090839EE89093310394E690933203612FC0
:101ED0000E94B313FCE08F9FB001112440E050E05A
:101EE0009A01260F371FF901EE0FFF1F2E0F3F1F1C
:101EF000F901E55FFC4F908196FD16C04F5F5F4F83
:101F00004C30510569F781110FC01092800082E0BA
:101F1000809381001092850010928400B19A809184
:101F20006F00826080936F00E0913003F0E0CF019A
:101F3000880F991FE80FF91FE55FFC4F80818064CF
:101F4000808380E090E00E94810B412C512C320173
:101F50004394FF24F394F5E02F2E312CA2E0EA2ED7
:101F6000B4E0DB2E8091420390914303A09144039F
:101F7000B0914503892B8A2B8B2B31F10E945E0691
:101F800000913E0310913F032091400330914103A3
:101F9000DC01CB01801B910BA20BB30B0091420320
:101FA000109143032091440330914503801791071A
:101FB000A207B30708F442C01092420310924303F1
:101FC00010924403109245030E94F00B29E635E07D
:101FD000DC010E94BF1328EE33E040E050E00E9495
:101FE0006515DA01C90120933A0230933B02409310
:101FF0003C0250933D024AE0BE016F5F7F4F0E945A
:10200000FE14AE014F5F5F4F60E084E60E94090C52
:102010000E945E0660933E0370933F0380934003EB
:102020009093410388E893E1A0E0B0E080934203FD
:1020300090934303A0934403B093450380914A03D4
:1020400090914B03A0914C03B0914D03892B8A2BA7
:102050008B2B31F10E945E060091460310914703DD
:102060002091480330914903DC01CB01801B910B87
:10207000A20BB30B00914A0310914B0320914C0328
:1020800030914D0380179107A207B30708F477C07A
:1020900010924A0310924B0310924C0310924D037E
:1020A00000913802109139020E945E064B015C01DA
:1020B000D8011E968C918823A1F0D80119968D9194
:1020C0009C911A9702971A969C938E93199719963A
:1020D0008D919C911A9797FF04C01A961C921E929C
:1020E0001997F80180810E943005D80113962C9130
:1020F00030E08217930709F02CC273E0C72EF80175
:1021000081810E943005D80113962C9130E082170E
:10211000930709F4CF24F801868197818C1980FFF9
:102120001AC22C2DCC0C330B3783268324813581A6
:102130008270082E000C990B0197820F931F9583D4
:10214000848381E0D8011E969C911E97911105C24F
:10215000D80112966C91611112C20E945E066093C2
:10216000460370934703809348039093490340923A
:102170004A0350924B0360924C0370924D03E091DE
:102180003802F0913902F8948481958120852230BB
:1021900021F49C012170332705C0243031F49C01C7
:1021A000237033273583248302C0158214827894E8
:1021B0002085243029F4959587959595879504C0B9
:1021C000223011F4959587952685222329F02185C3
:1021D0003285232F332702C020E030E097FF04C070
:1021E000C9018095909507C0892B19F0C901019606
:1021F00002C080E090E02091360230913702820FD9
:10220000931F8F3F910509F02CF490933702809330
:10221000360206C02FEF30E03093370220933602AB
:10222000809136029091370297FF04C010923702D6
:10223000109236026091360270913702809134021A
:102240009091350268177907F1F070933502609329
:1022500034024B01770FAA08BB08B7FE0CC08DE211
:102260000E94790C66277727CB01681979098A09BA
:102270009B094AE003C04AE0C501B4010E94960CE4
:102280008AE00E94790CE0913802F091390283854E
:102290009485238534852330310511F01486138607
:1022A000009709F184309105A1F044F48230910542
:1022B00069F00397A9F48DE591E010C08530910590
:1022C00059F0069769F48BE691E008C085E591E046
:1022D00005C082E691E002C082E791E00E94840C92
:1022E0008AE00E94790C85E00E94D70C823019F5B3
:1022F0008AE791E00E94840C8CE494E00E94490BF0
:1023000068EC70E080E090E00E9424068CED95E09F
:102310000E94490B68EC70E080E090E00E94240687
:1023200080ED97E00E94490BF0923A03F0923C0353
:1023300010923D0308C0833031F40E944E0C80E0BF
:1023400090E00E94810B00913B03809137030E9433
:10235000D70C182F809138030E94D70C823019F4C3
:10236000F0923B0327C0811102C08BE021C01230E4
:1023700021F433E030933B031DC0111102C08DE006
:1023800017C080913B03813011F08B3019F4E0923B
:102390003B0310C0823011F48CE00AC0833011F08E
:1023A0008D3019F4D0923B0305C0843019F48EE0CF
:1023B00080933B0380913B030817B1F08130A1F477
:1023C00060913D0311E0160F10933D0381E991E008
:1023D0000E94CF0B612F70E080E090E04AE00E9405
:1023E000960C8AE00E94790C80913A038130C1F406
:1023F00084E891E00E94CF0B8FEF809339036FEF59
:1024000070E0809136030E94C505809134030E94DC
:102410006307809133030E944D07E0923A0396C010
:10242000823089F480913C03882309F48FC0909115
:102430003D03981708F48AC082E791E00E94CF0B11
:102440000E944E0C83C08330B9F580913B0381110B
:1024500019C08CE591E00E94CF0B88E78093390387
:1024600068E770E0809136030E94C50580913403CF
:102470000E946307809133030E944D078AE0809396
:102480003B0364C0833019F08D3009F05FC086E4EF
:1024900091E00E94CF0B80913903853650F080E5A2
:1024A0008093390360E570E0809136030E94C50592
:1024B0004DC0D0923A034AC08430B1F58AE391E02E
:1024C0000E94CF0B809134030E94630780913303F5
:1024D0000E94630764E670E080E090E00E942406BA
:1024E00080913B03833011F08D3041F48BE191E01A
:1024F0000E94CF0B85E080933A0328C089E091E0E9
:102500000E94CF0B80E58093390360E570E08091F5
:1025100036030E94C505809134030E944D078091C7
:1025200033030E94630712C0853081F48BEE90E084
:102530000E94CF0B809134030E944D07809133039A
:102540000E944D0710923A0310923D030E94E3024D
:1025500009CDC12CD4CD80E0F5CD882309F4F8CD88
:1025600019968D919C911A97883E9B4008F0F0CD6A
:10257000F80181859285499692878187E9CD2091DE
:102580003002309131024091320250913302D50134
:10259000C401821B930BA40BB50B0A97A105B105CF
:1025A00008F4DBCD8092300290923102A092320288
:1025B000B0923302862F0E943005D80113962C91D9
:1025C000139730E08217930791F480912E02909137
:1025D0002F02019690932F0280932E028937910546
:1025E00030F0E3E0F0E01C96FC93EE931B97D801EB
:1025F00012968C910E943005F80123812F2530E03E
:102600008217930759F580912E0290912F02892B02
:1026100009F183859485039729F424E030E0348719
:1026200023870DC080912D02823060F08C3390F4AE
:10263000E6E0F0E0D8011C96FC93EE931B97109215
:102640002D0208C08585811102C081E001C08CE3A4
:1026500080932D0210922F0210922E0280912D0253
:10266000882309F47ACD825080932D02811175CD93
:10267000F8013486238671CD1092650210926402AF
:1026800088EE93E0A0E0B0E080936602909367024A
:10269000A0936802B093690223E131E030936302B2
:1026A0002093620225EC30E030936F0220936E029B
:1026B00024EC30E0309371022093700220EC30E083
:1026C000309373022093720221EC30E03093750254
:1026D0002093740222EC30E030937702209376024C
:1026E00026EC30E0309379022093780210927B023E
:1026F00010927C0210927D0210927E0210920203D0
:10270000109201038093030390930403A0930503A5
:10271000B093060383E291E0909300038093FF025D
:1027200083E080933A0310923C0310923D03809122
:102730002F038C30A0F491E0980F90932F03809397
:10274000300390E0FC01EE0FFF1F8E0F9F1FFC0176
:10275000E55FFC4F88EB9BE09283818308958FEFC8
:10276000809330030895991B79E004C0991F961750
:1027700008F0961B881F7A95C9F7809508950E94E6
:102780008715B7FF0895821B930B0895EE0FFF1F67
:102790000590F491E02D0994CF93DF938230910559
:1027A00010F482E090E0E0915003F091510320E0BA
:1027B00030E0C0E0D0E0309711F1408151814817FE
:1027C0005907C0F04817590761F482819381209717
:1027D00019F09B838A832BC09093510380935003FD
:1027E00026C02115310519F04217530718F49A0134
:1027F000BE01DF01EF010280F381E02DDCCF211566
:10280000310509F1281B390B2430310590F412965B
:102810008D919C9113976115710521F0FB019383B4
:10282000828304C09093510380935003FD0132963C
:1028300044C0FD01E20FF31F8193919322503109AF
:102840002D933C933AC020914E0330914F03232B9C
:1028500041F4209104013091050130934F032093FE
:102860004E0320910201309103012115310541F4FD
:102870002DB73EB74091060150910701241B350B3F
:10288000E0914E03F0914F03E217F307A0F42E1BE3
:102890003F0B2817390778F0AC014E5F5F4F2417C4
:1028A000350748F04E0F5F1F50934F0340934E0380
:1028B0008193919302C0E0E0F0E0CF01DF91CF91EE
:1028C00008950F931F93CF93DF93009709F48CC063
:1028D000FC01329713821282009150031091510330
:1028E0000115110581F420813181820F931F209100
:1028F0004E0330914F032817390779F5F0934F03B2
:10290000E0934E0371C0D80140E050E0AE17BF071E
:1029100050F412962D913C911397AD01211531057C
:1029200009F1D901F3CF9D01DA013383228360815C
:102930007181860F971F8217930769F4EC01288134
:102940003981260F371F2E5F3F4F318320838A81C5
:102950009B8193838283452B29F4F0935103E09369
:10296000500342C01396FC93EE931297ED014991E8
:1029700059919E01240F351FE217F30771F48081EE
:102980009181840F951F029611969C938E9382815C
:10299000938113969C938E931297E0E0F0E0D80118
:1029A00012968D919C911397009719F0F8018C0164
:1029B000F6CF8D919C9198012E5F3F4F820F931F10
:1029C00020914E0330914F032817390769F430974F
:1029D00029F4109251031092500302C01382128204
:1029E00010934F0300934E03DF91CF911F910F91EE
:1029F000089581E090E0F8940C949615BB274A3036
:102A000031F4992322F4BDE2909581959F4F0C9467
:102A10000A15BB27FB015527AA27880F991FAA1F54
:102A2000A41710F0A41B83955051B9F7A05DAA33E9
:102A300008F0A95DA193009779F7B111B1931192B4
:102A4000CB010C942315DC01FC01672F71917723D6
:102A5000E1F7329704C07C916D9370836291AE1759
:102A6000BF07C8F30895052E97FB1EF400940E943B
:102A70004A1557FD07D00E94651507FC03D04EF498
:102A80000C944A1550954095309521953F4F4F4FE6
:102A90005F4F089590958095709561957F4F8F4F0A
:102AA0009F4F08950E948715A59F900DB49F900D8C
:102AB000A49F800D911D11240895B7FF0C94521509
:102AC0000E945215821B930B0895A1E21A2EAA1B95
:102AD000BB1BFD010DC0AA1FBB1FEE1FFF1FA217CE
:102AE000B307E407F50720F0A21BB30BE40BF50BCB
:102AF000661F771F881F991F1A9469F76095709554
:102B0000809590959B01AC01BD01CF010895A29FD6
:102B1000B001B39FC001A39F700D811D1124911DB1
:102B2000B29F700D811D1124911D0895F894FFCF5F
:102B30003C010000520380000100000000970100EA
:102B40000000007A021E0B430221023502C102007E
:102B5000000000870457044F044004320431045736
:102B6000656C636F6D6520746F0046444C2D325860
:102B700000656C656374726F6E696320627920749E
:102B800072696C7500707265737365640068656C5A
:102B9000640072656C656173656400646F75626C76
:102BA0006520636C69636B65640073746172740A99
:022BB000000023
:00000001FF
